{
  "contractName": "show_num",
  "abi": [
    {
      "constant": false,
      "inputs": [
        {
          "internalType": "uint256",
          "name": "x",
          "type": "uint256"
        }
      ],
      "name": "set_num",
      "outputs": [],
      "payable": false,
      "stateMutability": "nonpayable",
      "type": "function"
    },
    {
      "constant": true,
      "inputs": [],
      "name": "reveal_num",
      "outputs": [
        {
          "internalType": "uint256",
          "name": "",
          "type": "uint256"
        }
      ],
      "payable": false,
      "stateMutability": "view",
      "type": "function"
    }
  ],
  "bytecode": "0x608060405234801561001057600080fd5b5060c68061001f6000396000f3fe6080604052348015600f57600080fd5b506004361060325760003560e01c80630da665a414603757806353cedc18146062575b600080fd5b606060048036036020811015604b57600080fd5b8101908080359060200190929190505050607e565b005b60686088565b6040518082815260200191505060405180910390f35b8060008190555050565b6000805490509056fea265627a7a72315820eea7a6a49d53d96595c31c94340a2b595bd6ba8f74cbd9dc76468e389745bf8364736f6c63430005100032",
  "source": "pragma solidity ^0.5.16 ;\r\n\r\ncontract show_num {\r\n    uint num ;\r\n    function set_num(uint x) public {\r\n        num = x;\r\n    }\r\n    function reveal_num () public view returns (uint){\r\n        return num;\r\n    }\r\n}\r\n",
  "sourcePath": "C:/Users/Saksham Garg/Desktop/Blockchain/DApp 1/show_num/contracts/show_num.sol",
  "compiler": {
    "name": "solc",
    "version": "0.5.16+commit.9c3226ce.Emscripten.clang"
  },
  "schemaVersion": "3.2.3",
  "updatedAt": "2020-08-13T03:41:57.749Z",
  "networkType": "ethereum",
  "devdoc": {
    "methods": {}
  },
  "userdoc": {
    "methods": {}
  }
}